{
  "_format": "hh-sol-artifact-1",
  "contractName": "WavePortal",
  "sourceName": "contracts/WavePortal.sol",
  "abi": [
    {
      "inputs": [],
      "stateMutability": "payable",
      "type": "constructor"
    },
    {
      "anonymous": false,
      "inputs": [
        {
          "indexed": true,
          "internalType": "address",
          "name": "from",
          "type": "address"
        },
        {
          "indexed": false,
          "internalType": "uint256",
          "name": "timestamp",
          "type": "uint256"
        },
        {
          "indexed": false,
          "internalType": "string",
          "name": "message",
          "type": "string"
        }
      ],
      "name": "NewWave",
      "type": "event"
    },
    {
      "inputs": [],
      "name": "getAllWaves",
      "outputs": [
        {
          "components": [
            {
              "internalType": "address",
              "name": "waver",
              "type": "address"
            },
            {
              "internalType": "string",
              "name": "message",
              "type": "string"
            },
            {
              "internalType": "uint256",
              "name": "timestamp",
              "type": "uint256"
            }
          ],
          "internalType": "struct WavePortal.Wave[]",
          "name": "",
          "type": "tuple[]"
        }
      ],
      "stateMutability": "view",
      "type": "function"
    },
    {
      "inputs": [],
      "name": "getTotalWaves",
      "outputs": [
        {
          "internalType": "uint256",
          "name": "",
          "type": "uint256"
        }
      ],
      "stateMutability": "view",
      "type": "function"
    },
    {
      "inputs": [],
      "name": "getWaverAddresses",
      "outputs": [
        {
          "internalType": "address[]",
          "name": "",
          "type": "address[]"
        }
      ],
      "stateMutability": "view",
      "type": "function"
    },
    {
      "inputs": [
        {
          "internalType": "address",
          "name": "_address",
          "type": "address"
        }
      ],
      "name": "getWaverCount",
      "outputs": [
        {
          "internalType": "uint256",
          "name": "",
          "type": "uint256"
        }
      ],
      "stateMutability": "view",
      "type": "function"
    },
    {
      "inputs": [
        {
          "internalType": "string",
          "name": "_message",
          "type": "string"
        }
      ],
      "name": "wave",
      "outputs": [],
      "stateMutability": "nonpayable",
      "type": "function"
    },
    {
      "inputs": [
        {
          "internalType": "address",
          "name": "",
          "type": "address"
        }
      ],
      "name": "waveCounts",
      "outputs": [
        {
          "internalType": "uint256",
          "name": "",
          "type": "uint256"
        }
      ],
      "stateMutability": "view",
      "type": "function"
    }
  ],
  "bytecode": "0x60806040526200004f6040518060400160405280601a81526020017f496e2074686520656e642c20492077696c6c20736179206869210000000000008152506200005560201b6200080b1760201c565b620001d7565b620000f5816040516024016200006c9190620001b3565b6040516020818303038152906040527f41304fac000000000000000000000000000000000000000000000000000000007bffffffffffffffffffffffffffffffffffffffffffffffffffffffff19166020820180517bffffffffffffffffffffffffffffffffffffffffffffffffffffffff8381831617835250505050620000f860201b60201c565b50565b60006a636f6e736f6c652e6c6f679050600080835160208501845afa505050565b600081519050919050565b600082825260208201905092915050565b60005b838110156200015557808201518184015260208101905062000138565b60008484015250505050565b6000601f19601f8301169050919050565b60006200017f8262000119565b6200018b818562000124565b93506200019d81856020860162000135565b620001a88162000161565b840191505092915050565b60006020820190508181036000830152620001cf818462000172565b905092915050565b6115ca80620001e76000396000f3fe608060405234801561001057600080fd5b50600436106100625760003560e01c806318c69afc146100675780633c29777e14610097578063449d46c0146100b55780639a2cdc08146100d1578063bd43a908146100ef578063e39af6cd1461010d575b600080fd5b610081600480360381019061007c9190610b0e565b61013d565b60405161008e9190610b54565b60405180910390f35b61009f610155565b6040516100ac9190610c2d565b60405180910390f35b6100cf60048036038101906100ca9190610d95565b610221565b005b6100d96105a7565b6040516100e69190610b54565b60405180910390f35b6100f76105f2565b6040516101049190610f7e565b60405180910390f35b61012760048036038101906101229190610b0e565b610743565b6040516101349190610b54565b60405180910390f35b60016020528060005260406000206000915090505481565b60606101956040518060400160405280601a81526020017f52657472656976696e672057617665724164647265737365733a00000000000081525061080b565b600280548060200260200160405190810160405280929190818152602001828054801561021757602002820191906000526020600020905b8160009054906101000a900473ffffffffffffffffffffffffffffffffffffffff1673ffffffffffffffffffffffffffffffffffffffff16815260200190600101908083116101cd575b5050505050905090565b60016000808282546102339190610fcf565b925050819055506000600160003373ffffffffffffffffffffffffffffffffffffffff1673ffffffffffffffffffffffffffffffffffffffff16815260200190815260200160002054036102e5576002339080600181540180825580915050600190039060005260206000200160009091909190916101000a81548173ffffffffffffffffffffffffffffffffffffffff021916908373ffffffffffffffffffffffffffffffffffffffff1602179055505b60018060003373ffffffffffffffffffffffffffffffffffffffff1673ffffffffffffffffffffffffffffffffffffffff16815260200190815260200160002060008282546103349190610fcf565b92505081905550604051806020016040528060008152505181511461041957600360405180606001604052803373ffffffffffffffffffffffffffffffffffffffff16815260200183815260200142815250908060018154018082558091505060019003906000526020600020906003020160009091909190915060008201518160000160006101000a81548173ffffffffffffffffffffffffffffffffffffffff021916908373ffffffffffffffffffffffffffffffffffffffff160217905550602082015181600101908161040b919061120f565b506040820151816002015550505b6104586040518060400160405280600d81526020017f2573206861732077617665642100000000000000000000000000000000000000815250336108a4565b3373ffffffffffffffffffffffffffffffffffffffff167f5f7e16dc676677766a70e9c5628aa6c54ddb8b6e5188e2ae1e1f17f1ffbea71642836040516104a092919061132b565b60405180910390a26000655af3107a40009050478111156104f6576040517f08c379a00000000000000000000000000000000000000000000000000000000081526004016104ed906113cd565b60405180910390fd5b60003373ffffffffffffffffffffffffffffffffffffffff168260405161051c9061141e565b60006040518083038185875af1925050503d8060008114610559576040519150601f19603f3d011682016040523d82523d6000602084013e61055e565b606091505b50509050806105a2576040517f08c379a0000000000000000000000000000000000000000000000000000000008152600401610599906114a5565b60405180910390fd5b505050565b60006105ea6040518060400160405280601781526020017f5765206861766520256420746f74616c20776176657321000000000000000000815250600054610940565b600054905090565b60606003805480602002602001604051908101604052809291908181526020016000905b8282101561073a57838290600052602060002090600302016040518060600160405290816000820160009054906101000a900473ffffffffffffffffffffffffffffffffffffffff1673ffffffffffffffffffffffffffffffffffffffff1673ffffffffffffffffffffffffffffffffffffffff16815260200160018201805461069f90611032565b80601f01602080910402602001604051908101604052809291908181526020018280546106cb90611032565b80156107185780601f106106ed57610100808354040283529160200191610718565b820191906000526020600020905b8154815290600101906020018083116106fb57829003601f168201915b5050505050815260200160028201548152505081526020019060010190610616565b50505050905090565b60006107c46040518060400160405280601e81526020017f41646472657373202573206861732077617665642025642074696d657321000081525083600160008673ffffffffffffffffffffffffffffffffffffffff1673ffffffffffffffffffffffffffffffffffffffff168152602001908152602001600020546109dc565b600160008373ffffffffffffffffffffffffffffffffffffffff1673ffffffffffffffffffffffffffffffffffffffff168152602001908152602001600020549050919050565b6108a18160405160240161081f91906114c5565b6040516020818303038152906040527f41304fac000000000000000000000000000000000000000000000000000000007bffffffffffffffffffffffffffffffffffffffffffffffffffffffff19166020820180517bffffffffffffffffffffffffffffffffffffffffffffffffffffffff8381831617835250505050610a7b565b50565b61093c82826040516024016108ba9291906114f6565b6040516020818303038152906040527f319af333000000000000000000000000000000000000000000000000000000007bffffffffffffffffffffffffffffffffffffffffffffffffffffffff19166020820180517bffffffffffffffffffffffffffffffffffffffffffffffffffffffff8381831617835250505050610a7b565b5050565b6109d88282604051602401610956929190611526565b6040516020818303038152906040527fb60e72cc000000000000000000000000000000000000000000000000000000007bffffffffffffffffffffffffffffffffffffffffffffffffffffffff19166020820180517bffffffffffffffffffffffffffffffffffffffffffffffffffffffff8381831617835250505050610a7b565b5050565b610a768383836040516024016109f493929190611556565b6040516020818303038152906040527f0d26b925000000000000000000000000000000000000000000000000000000007bffffffffffffffffffffffffffffffffffffffffffffffffffffffff19166020820180517bffffffffffffffffffffffffffffffffffffffffffffffffffffffff8381831617835250505050610a7b565b505050565b60006a636f6e736f6c652e6c6f679050600080835160208501845afa505050565b6000604051905090565b600080fd5b600080fd5b600073ffffffffffffffffffffffffffffffffffffffff82169050919050565b6000610adb82610ab0565b9050919050565b610aeb81610ad0565b8114610af657600080fd5b50565b600081359050610b0881610ae2565b92915050565b600060208284031215610b2457610b23610aa6565b5b6000610b3284828501610af9565b91505092915050565b6000819050919050565b610b4e81610b3b565b82525050565b6000602082019050610b696000830184610b45565b92915050565b600081519050919050565b600082825260208201905092915050565b6000819050602082019050919050565b610ba481610ad0565b82525050565b6000610bb68383610b9b565b60208301905092915050565b6000602082019050919050565b6000610bda82610b6f565b610be48185610b7a565b9350610bef83610b8b565b8060005b83811015610c20578151610c078882610baa565b9750610c1283610bc2565b925050600181019050610bf3565b5085935050505092915050565b60006020820190508181036000830152610c478184610bcf565b905092915050565b600080fd5b600080fd5b6000601f19601f8301169050919050565b7f4e487b7100000000000000000000000000000000000000000000000000000000600052604160045260246000fd5b610ca282610c59565b810181811067ffffffffffffffff82111715610cc157610cc0610c6a565b5b80604052505050565b6000610cd4610a9c565b9050610ce08282610c99565b919050565b600067ffffffffffffffff821115610d0057610cff610c6a565b5b610d0982610c59565b9050602081019050919050565b82818337600083830152505050565b6000610d38610d3384610ce5565b610cca565b905082815260208101848484011115610d5457610d53610c54565b5b610d5f848285610d16565b509392505050565b600082601f830112610d7c57610d7b610c4f565b5b8135610d8c848260208601610d25565b91505092915050565b600060208284031215610dab57610daa610aa6565b5b600082013567ffffffffffffffff811115610dc957610dc8610aab565b5b610dd584828501610d67565b91505092915050565b600081519050919050565b600082825260208201905092915050565b6000819050602082019050919050565b600081519050919050565b600082825260208201905092915050565b60005b83811015610e44578082015181840152602081019050610e29565b60008484015250505050565b6000610e5b82610e0a565b610e658185610e15565b9350610e75818560208601610e26565b610e7e81610c59565b840191505092915050565b610e9281610b3b565b82525050565b6000606083016000830151610eb06000860182610b9b565b5060208301518482036020860152610ec88282610e50565b9150506040830151610edd6040860182610e89565b508091505092915050565b6000610ef48383610e98565b905092915050565b6000602082019050919050565b6000610f1482610dde565b610f1e8185610de9565b935083602082028501610f3085610dfa565b8060005b85811015610f6c5784840389528151610f4d8582610ee8565b9450610f5883610efc565b925060208a01995050600181019050610f34565b50829750879550505050505092915050565b60006020820190508181036000830152610f988184610f09565b905092915050565b7f4e487b7100000000000000000000000000000000000000000000000000000000600052601160045260246000fd5b6000610fda82610b3b565b9150610fe583610b3b565b9250828201905080821115610ffd57610ffc610fa0565b5b92915050565b7f4e487b7100000000000000000000000000000000000000000000000000000000600052602260045260246000fd5b6000600282049050600182168061104a57607f821691505b60208210810361105d5761105c611003565b5b50919050565b60008190508160005260206000209050919050565b60006020601f8301049050919050565b600082821b905092915050565b6000600883026110c57fffffffffffffffffffffffffffffffffffffffffffffffffffffffffffffffff82611088565b6110cf8683611088565b95508019841693508086168417925050509392505050565b6000819050919050565b600061110c61110761110284610b3b565b6110e7565b610b3b565b9050919050565b6000819050919050565b611126836110f1565b61113a61113282611113565b848454611095565b825550505050565b600090565b61114f611142565b61115a81848461111d565b505050565b5b8181101561117e57611173600082611147565b600181019050611160565b5050565b601f8211156111c35761119481611063565b61119d84611078565b810160208510156111ac578190505b6111c06111b885611078565b83018261115f565b50505b505050565b600082821c905092915050565b60006111e6600019846008026111c8565b1980831691505092915050565b60006111ff83836111d5565b9150826002028217905092915050565b61121882610e0a565b67ffffffffffffffff81111561123157611230610c6a565b5b61123b8254611032565b611246828285611182565b600060209050601f8311600181146112795760008415611267578287015190505b61127185826111f3565b8655506112d9565b601f19841661128786611063565b60005b828110156112af5784890151825560018201915060208501945060208101905061128a565b868310156112cc57848901516112c8601f8916826111d5565b8355505b6001600288020188555050505b505050505050565b600082825260208201905092915050565b60006112fd82610e0a565b61130781856112e1565b9350611317818560208601610e26565b61132081610c59565b840191505092915050565b60006040820190506113406000830185610b45565b818103602083015261135281846112f2565b90509392505050565b7f547279696e6720746f207769746864726177206d6f7265206d6f6e657920746860008201527f616e2074686520636f6e7472616374206861732e000000000000000000000000602082015250565b60006113b76034836112e1565b91506113c28261135b565b604082019050919050565b600060208201905081810360008301526113e6816113aa565b9050919050565b600081905092915050565b50565b60006114086000836113ed565b9150611413826113f8565b600082019050919050565b6000611429826113fb565b9150819050919050565b7f4661696c656420746f207769746864726177206d6f6e65792066726f6d20636f60008201527f6e74726163742e00000000000000000000000000000000000000000000000000602082015250565b600061148f6027836112e1565b915061149a82611433565b604082019050919050565b600060208201905081810360008301526114be81611482565b9050919050565b600060208201905081810360008301526114df81846112f2565b905092915050565b6114f081610ad0565b82525050565b6000604082019050818103600083015261151081856112f2565b905061151f60208301846114e7565b9392505050565b6000604082019050818103600083015261154081856112f2565b905061154f6020830184610b45565b9392505050565b6000606082019050818103600083015261157081866112f2565b905061157f60208301856114e7565b61158c6040830184610b45565b94935050505056fea26469706673582212209243b1d293586828f4dad33f3670eb088c95aebd147b5103eab345443d5b876264736f6c63430008120033",
  "linkReferences": {},
  "deployedLinkReferences": {}
}