{
  "_format": "hh-sol-artifact-1",
  "contractName": "WavePortal",
  "sourceName": "contracts/WavePortal.sol",
  "abi": [
    {
      "inputs": [],
      "stateMutability": "nonpayable",
      "type": "constructor"
    },
    {
      "anonymous": false,
      "inputs": [
        {
          "indexed": true,
          "internalType": "address",
          "name": "from",
          "type": "address"
        },
        {
          "indexed": false,
          "internalType": "uint256",
          "name": "timestamp",
          "type": "uint256"
        },
        {
          "indexed": false,
          "internalType": "string",
          "name": "message",
          "type": "string"
        }
      ],
      "name": "NewWave",
      "type": "event"
    },
    {
      "inputs": [],
      "name": "getAllWaves",
      "outputs": [
        {
          "components": [
            {
              "internalType": "address",
              "name": "waver",
              "type": "address"
            },
            {
              "internalType": "string",
              "name": "message",
              "type": "string"
            },
            {
              "internalType": "uint256",
              "name": "timestamp",
              "type": "uint256"
            }
          ],
          "internalType": "struct WavePortal.Wave[]",
          "name": "",
          "type": "tuple[]"
        }
      ],
      "stateMutability": "view",
      "type": "function"
    },
    {
      "inputs": [],
      "name": "getTotalWaves",
      "outputs": [
        {
          "internalType": "uint256",
          "name": "",
          "type": "uint256"
        }
      ],
      "stateMutability": "view",
      "type": "function"
    },
    {
      "inputs": [],
      "name": "getWaverAddresses",
      "outputs": [
        {
          "internalType": "address[]",
          "name": "",
          "type": "address[]"
        }
      ],
      "stateMutability": "view",
      "type": "function"
    },
    {
      "inputs": [
        {
          "internalType": "address",
          "name": "_address",
          "type": "address"
        }
      ],
      "name": "getWaverCount",
      "outputs": [
        {
          "internalType": "uint256",
          "name": "",
          "type": "uint256"
        }
      ],
      "stateMutability": "view",
      "type": "function"
    },
    {
      "inputs": [
        {
          "internalType": "string",
          "name": "_message",
          "type": "string"
        }
      ],
      "name": "wave",
      "outputs": [],
      "stateMutability": "nonpayable",
      "type": "function"
    },
    {
      "inputs": [
        {
          "internalType": "address",
          "name": "",
          "type": "address"
        }
      ],
      "name": "waveCounts",
      "outputs": [
        {
          "internalType": "uint256",
          "name": "",
          "type": "uint256"
        }
      ],
      "stateMutability": "view",
      "type": "function"
    }
  ],
  "bytecode": "0x60806040523480156200001157600080fd5b506200005d6040518060400160405280601a81526020017f496e2074686520656e642c20492077696c6c20736179206869210000000000008152506200006360201b6200070f1760201c565b620001e5565b62000103816040516024016200007a9190620001c1565b6040516020818303038152906040527f41304fac000000000000000000000000000000000000000000000000000000007bffffffffffffffffffffffffffffffffffffffffffffffffffffffff19166020820180517bffffffffffffffffffffffffffffffffffffffffffffffffffffffff83818316178352505050506200010660201b60201c565b50565b60006a636f6e736f6c652e6c6f679050600080835160208501845afa505050565b600081519050919050565b600082825260208201905092915050565b60005b838110156200016357808201518184015260208101905062000146565b60008484015250505050565b6000601f19601f8301169050919050565b60006200018d8262000127565b62000199818562000132565b9350620001ab81856020860162000143565b620001b6816200016f565b840191505092915050565b60006020820190508181036000830152620001dd818462000180565b905092915050565b61136480620001f56000396000f3fe608060405234801561001057600080fd5b50600436106100625760003560e01c806318c69afc146100675780633c29777e14610097578063449d46c0146100b55780639a2cdc08146100d1578063bd43a908146100ef578063e39af6cd1461010d575b600080fd5b610081600480360381019061007c9190610a12565b61013d565b60405161008e9190610a58565b60405180910390f35b61009f610155565b6040516100ac9190610b31565b60405180910390f35b6100cf60048036038101906100ca9190610c99565b610221565b005b6100d96104ab565b6040516100e69190610a58565b60405180910390f35b6100f76104f6565b6040516101049190610e82565b60405180910390f35b61012760048036038101906101229190610a12565b610647565b6040516101349190610a58565b60405180910390f35b60016020528060005260406000206000915090505481565b60606101956040518060400160405280601a81526020017f52657472656976696e672057617665724164647265737365733a00000000000081525061070f565b600280548060200260200160405190810160405280929190818152602001828054801561021757602002820191906000526020600020905b8160009054906101000a900473ffffffffffffffffffffffffffffffffffffffff1673ffffffffffffffffffffffffffffffffffffffff16815260200190600101908083116101cd575b5050505050905090565b60016000808282546102339190610ed3565b925050819055506000600160003373ffffffffffffffffffffffffffffffffffffffff1673ffffffffffffffffffffffffffffffffffffffff16815260200190815260200160002054036102e5576002339080600181540180825580915050600190039060005260206000200160009091909190916101000a81548173ffffffffffffffffffffffffffffffffffffffff021916908373ffffffffffffffffffffffffffffffffffffffff1602179055505b60018060003373ffffffffffffffffffffffffffffffffffffffff1673ffffffffffffffffffffffffffffffffffffffff16815260200190815260200160002060008282546103349190610ed3565b92505081905550604051806020016040528060008152505181511461041957600360405180606001604052803373ffffffffffffffffffffffffffffffffffffffff16815260200183815260200142815250908060018154018082558091505060019003906000526020600020906003020160009091909190915060008201518160000160006101000a81548173ffffffffffffffffffffffffffffffffffffffff021916908373ffffffffffffffffffffffffffffffffffffffff160217905550602082015181600101908161040b9190611113565b506040820151816002015550505b6104586040518060400160405280600d81526020017f2573206861732077617665642100000000000000000000000000000000000000815250336107a8565b3373ffffffffffffffffffffffffffffffffffffffff167f5f7e16dc676677766a70e9c5628aa6c54ddb8b6e5188e2ae1e1f17f1ffbea71642836040516104a092919061122f565b60405180910390a250565b60006104ee6040518060400160405280601781526020017f5765206861766520256420746f74616c20776176657321000000000000000000815250600054610844565b600054905090565b60606003805480602002602001604051908101604052809291908181526020016000905b8282101561063e57838290600052602060002090600302016040518060600160405290816000820160009054906101000a900473ffffffffffffffffffffffffffffffffffffffff1673ffffffffffffffffffffffffffffffffffffffff1673ffffffffffffffffffffffffffffffffffffffff1681526020016001820180546105a390610f36565b80601f01602080910402602001604051908101604052809291908181526020018280546105cf90610f36565b801561061c5780601f106105f15761010080835404028352916020019161061c565b820191906000526020600020905b8154815290600101906020018083116105ff57829003601f168201915b505050505081526020016002820154815250508152602001906001019061051a565b50505050905090565b60006106c86040518060400160405280601e81526020017f41646472657373202573206861732077617665642025642074696d657321000081525083600160008673ffffffffffffffffffffffffffffffffffffffff1673ffffffffffffffffffffffffffffffffffffffff168152602001908152602001600020546108e0565b600160008373ffffffffffffffffffffffffffffffffffffffff1673ffffffffffffffffffffffffffffffffffffffff168152602001908152602001600020549050919050565b6107a581604051602401610723919061125f565b6040516020818303038152906040527f41304fac000000000000000000000000000000000000000000000000000000007bffffffffffffffffffffffffffffffffffffffffffffffffffffffff19166020820180517bffffffffffffffffffffffffffffffffffffffffffffffffffffffff838183161783525050505061097f565b50565b61084082826040516024016107be929190611290565b6040516020818303038152906040527f319af333000000000000000000000000000000000000000000000000000000007bffffffffffffffffffffffffffffffffffffffffffffffffffffffff19166020820180517bffffffffffffffffffffffffffffffffffffffffffffffffffffffff838183161783525050505061097f565b5050565b6108dc828260405160240161085a9291906112c0565b6040516020818303038152906040527fb60e72cc000000000000000000000000000000000000000000000000000000007bffffffffffffffffffffffffffffffffffffffffffffffffffffffff19166020820180517bffffffffffffffffffffffffffffffffffffffffffffffffffffffff838183161783525050505061097f565b5050565b61097a8383836040516024016108f8939291906112f0565b6040516020818303038152906040527f0d26b925000000000000000000000000000000000000000000000000000000007bffffffffffffffffffffffffffffffffffffffffffffffffffffffff19166020820180517bffffffffffffffffffffffffffffffffffffffffffffffffffffffff838183161783525050505061097f565b505050565b60006a636f6e736f6c652e6c6f679050600080835160208501845afa505050565b6000604051905090565b600080fd5b600080fd5b600073ffffffffffffffffffffffffffffffffffffffff82169050919050565b60006109df826109b4565b9050919050565b6109ef816109d4565b81146109fa57600080fd5b50565b600081359050610a0c816109e6565b92915050565b600060208284031215610a2857610a276109aa565b5b6000610a36848285016109fd565b91505092915050565b6000819050919050565b610a5281610a3f565b82525050565b6000602082019050610a6d6000830184610a49565b92915050565b600081519050919050565b600082825260208201905092915050565b6000819050602082019050919050565b610aa8816109d4565b82525050565b6000610aba8383610a9f565b60208301905092915050565b6000602082019050919050565b6000610ade82610a73565b610ae88185610a7e565b9350610af383610a8f565b8060005b83811015610b24578151610b0b8882610aae565b9750610b1683610ac6565b925050600181019050610af7565b5085935050505092915050565b60006020820190508181036000830152610b4b8184610ad3565b905092915050565b600080fd5b600080fd5b6000601f19601f8301169050919050565b7f4e487b7100000000000000000000000000000000000000000000000000000000600052604160045260246000fd5b610ba682610b5d565b810181811067ffffffffffffffff82111715610bc557610bc4610b6e565b5b80604052505050565b6000610bd86109a0565b9050610be48282610b9d565b919050565b600067ffffffffffffffff821115610c0457610c03610b6e565b5b610c0d82610b5d565b9050602081019050919050565b82818337600083830152505050565b6000610c3c610c3784610be9565b610bce565b905082815260208101848484011115610c5857610c57610b58565b5b610c63848285610c1a565b509392505050565b600082601f830112610c8057610c7f610b53565b5b8135610c90848260208601610c29565b91505092915050565b600060208284031215610caf57610cae6109aa565b5b600082013567ffffffffffffffff811115610ccd57610ccc6109af565b5b610cd984828501610c6b565b91505092915050565b600081519050919050565b600082825260208201905092915050565b6000819050602082019050919050565b600081519050919050565b600082825260208201905092915050565b60005b83811015610d48578082015181840152602081019050610d2d565b60008484015250505050565b6000610d5f82610d0e565b610d698185610d19565b9350610d79818560208601610d2a565b610d8281610b5d565b840191505092915050565b610d9681610a3f565b82525050565b6000606083016000830151610db46000860182610a9f565b5060208301518482036020860152610dcc8282610d54565b9150506040830151610de16040860182610d8d565b508091505092915050565b6000610df88383610d9c565b905092915050565b6000602082019050919050565b6000610e1882610ce2565b610e228185610ced565b935083602082028501610e3485610cfe565b8060005b85811015610e705784840389528151610e518582610dec565b9450610e5c83610e00565b925060208a01995050600181019050610e38565b50829750879550505050505092915050565b60006020820190508181036000830152610e9c8184610e0d565b905092915050565b7f4e487b7100000000000000000000000000000000000000000000000000000000600052601160045260246000fd5b6000610ede82610a3f565b9150610ee983610a3f565b9250828201905080821115610f0157610f00610ea4565b5b92915050565b7f4e487b7100000000000000000000000000000000000000000000000000000000600052602260045260246000fd5b60006002820490506001821680610f4e57607f821691505b602082108103610f6157610f60610f07565b5b50919050565b60008190508160005260206000209050919050565b60006020601f8301049050919050565b600082821b905092915050565b600060088302610fc97fffffffffffffffffffffffffffffffffffffffffffffffffffffffffffffffff82610f8c565b610fd38683610f8c565b95508019841693508086168417925050509392505050565b6000819050919050565b600061101061100b61100684610a3f565b610feb565b610a3f565b9050919050565b6000819050919050565b61102a83610ff5565b61103e61103682611017565b848454610f99565b825550505050565b600090565b611053611046565b61105e818484611021565b505050565b5b818110156110825761107760008261104b565b600181019050611064565b5050565b601f8211156110c75761109881610f67565b6110a184610f7c565b810160208510156110b0578190505b6110c46110bc85610f7c565b830182611063565b50505b505050565b600082821c905092915050565b60006110ea600019846008026110cc565b1980831691505092915050565b600061110383836110d9565b9150826002028217905092915050565b61111c82610d0e565b67ffffffffffffffff81111561113557611134610b6e565b5b61113f8254610f36565b61114a828285611086565b600060209050601f83116001811461117d576000841561116b578287015190505b61117585826110f7565b8655506111dd565b601f19841661118b86610f67565b60005b828110156111b35784890151825560018201915060208501945060208101905061118e565b868310156111d057848901516111cc601f8916826110d9565b8355505b6001600288020188555050505b505050505050565b600082825260208201905092915050565b600061120182610d0e565b61120b81856111e5565b935061121b818560208601610d2a565b61122481610b5d565b840191505092915050565b60006040820190506112446000830185610a49565b818103602083015261125681846111f6565b90509392505050565b6000602082019050818103600083015261127981846111f6565b905092915050565b61128a816109d4565b82525050565b600060408201905081810360008301526112aa81856111f6565b90506112b96020830184611281565b9392505050565b600060408201905081810360008301526112da81856111f6565b90506112e96020830184610a49565b9392505050565b6000606082019050818103600083015261130a81866111f6565b90506113196020830185611281565b6113266040830184610a49565b94935050505056fea26469706673582212201107d34123a4ba5a420119ff8018f9ebc33c15aff736507b8a57754d542fe18864736f6c63430008120033",
  "linkReferences": {},
  "deployedLinkReferences": {}
}