{
  "_format": "hh-sol-artifact-1",
  "contractName": "WavePortal",
  "sourceName": "contracts/WavePortal.sol",
  "abi": [
    {
      "inputs": [],
      "stateMutability": "payable",
      "type": "constructor"
    },
    {
      "anonymous": false,
      "inputs": [
        {
          "indexed": true,
          "internalType": "address",
          "name": "from",
          "type": "address"
        },
        {
          "indexed": false,
          "internalType": "uint256",
          "name": "timestamp",
          "type": "uint256"
        },
        {
          "indexed": false,
          "internalType": "string",
          "name": "message",
          "type": "string"
        }
      ],
      "name": "NewWave",
      "type": "event"
    },
    {
      "inputs": [],
      "name": "getAllWaves",
      "outputs": [
        {
          "components": [
            {
              "internalType": "address",
              "name": "waver",
              "type": "address"
            },
            {
              "internalType": "string",
              "name": "message",
              "type": "string"
            },
            {
              "internalType": "uint256",
              "name": "timestamp",
              "type": "uint256"
            }
          ],
          "internalType": "struct WavePortal.Wave[]",
          "name": "",
          "type": "tuple[]"
        }
      ],
      "stateMutability": "view",
      "type": "function"
    },
    {
      "inputs": [],
      "name": "getTotalWaves",
      "outputs": [
        {
          "internalType": "uint256",
          "name": "",
          "type": "uint256"
        }
      ],
      "stateMutability": "view",
      "type": "function"
    },
    {
      "inputs": [],
      "name": "getWaverAddresses",
      "outputs": [
        {
          "internalType": "address[]",
          "name": "",
          "type": "address[]"
        }
      ],
      "stateMutability": "view",
      "type": "function"
    },
    {
      "inputs": [
        {
          "internalType": "address",
          "name": "_address",
          "type": "address"
        }
      ],
      "name": "getWaverCount",
      "outputs": [
        {
          "internalType": "uint256",
          "name": "",
          "type": "uint256"
        }
      ],
      "stateMutability": "view",
      "type": "function"
    },
    {
      "inputs": [
        {
          "internalType": "address",
          "name": "",
          "type": "address"
        }
      ],
      "name": "lastWavedAt",
      "outputs": [
        {
          "internalType": "uint256",
          "name": "",
          "type": "uint256"
        }
      ],
      "stateMutability": "view",
      "type": "function"
    },
    {
      "inputs": [
        {
          "internalType": "string",
          "name": "_message",
          "type": "string"
        }
      ],
      "name": "wave",
      "outputs": [],
      "stateMutability": "nonpayable",
      "type": "function"
    },
    {
      "inputs": [
        {
          "internalType": "address",
          "name": "",
          "type": "address"
        }
      ],
      "name": "waveCounts",
      "outputs": [
        {
          "internalType": "uint256",
          "name": "",
          "type": "uint256"
        }
      ],
      "stateMutability": "view",
      "type": "function"
    }
  ],
  "bytecode": "0x60806040526200004f6040518060400160405280601a81526020017f496e2074686520656e642c20492077696c6c20736179206869210000000000008152506200007760201b620009b71760201c565b606444426200005f919062000174565b6200006b9190620001de565b600581905550620002d4565b62000117816040516024016200008e9190620002b0565b6040516020818303038152906040527f41304fac000000000000000000000000000000000000000000000000000000007bffffffffffffffffffffffffffffffffffffffffffffffffffffffff19166020820180517bffffffffffffffffffffffffffffffffffffffffffffffffffffffff83818316178352505050506200011a60201b60201c565b50565b60006a636f6e736f6c652e6c6f679050600080835160208501845afa505050565b6000819050919050565b7f4e487b7100000000000000000000000000000000000000000000000000000000600052601160045260246000fd5b600062000181826200013b565b91506200018e836200013b565b9250828201905080821115620001a957620001a862000145565b5b92915050565b7f4e487b7100000000000000000000000000000000000000000000000000000000600052601260045260246000fd5b6000620001eb826200013b565b9150620001f8836200013b565b9250826200020b576200020a620001af565b5b828206905092915050565b600081519050919050565b600082825260208201905092915050565b60005b838110156200025257808201518184015260208101905062000235565b60008484015250505050565b6000601f19601f8301169050919050565b60006200027c8262000216565b62000288818562000221565b93506200029a81856020860162000232565b620002a5816200025e565b840191505092915050565b60006020820190508181036000830152620002cc81846200026f565b905092915050565b61184280620002e46000396000f3fe608060405234801561001057600080fd5b506004361061007d5760003560e01c80639a2cdc081161005b5780639a2cdc08146100ec578063a42a46631461010a578063bd43a9081461013a578063e39af6cd146101585761007d565b806318c69afc146100825780633c29777e146100b2578063449d46c0146100d0575b600080fd5b61009c60048036038101906100979190610cba565b610188565b6040516100a99190610d00565b60405180910390f35b6100ba6101a0565b6040516100c79190610dd9565b60405180910390f35b6100ea60048036038101906100e59190610f41565b61026c565b005b6100f461073b565b6040516101019190610d00565b60405180910390f35b610124600480360381019061011f9190610cba565b610786565b6040516101319190610d00565b60405180910390f35b61014261079e565b60405161014f919061112a565b60405180910390f35b610172600480360381019061016d9190610cba565b6108ef565b60405161017f9190610d00565b60405180910390f35b60016020528060005260406000206000915090505481565b60606101e06040518060400160405280601a81526020017f52657472656976696e672057617665724164647265737365733a0000000000008152506109b7565b600380548060200260200160405190810160405280929190818152602001828054801561026257602002820191906000526020600020905b8160009054906101000a900473ffffffffffffffffffffffffffffffffffffffff1673ffffffffffffffffffffffffffffffffffffffff1681526020019060010190808311610218575b5050505050905090565b42610384600260003373ffffffffffffffffffffffffffffffffffffffff1673ffffffffffffffffffffffffffffffffffffffff168152602001908152602001600020546102ba919061117b565b106102fa576040517f08c379a00000000000000000000000000000000000000000000000000000000081526004016102f19061120c565b60405180910390fd5b42600260003373ffffffffffffffffffffffffffffffffffffffff1673ffffffffffffffffffffffffffffffffffffffff168152602001908152602001600020819055506001600080828254610350919061117b565b925050819055506000600160003373ffffffffffffffffffffffffffffffffffffffff1673ffffffffffffffffffffffffffffffffffffffff1681526020019081526020016000205403610402576003339080600181540180825580915050600190039060005260206000200160009091909190916101000a81548173ffffffffffffffffffffffffffffffffffffffff021916908373ffffffffffffffffffffffffffffffffffffffff1602179055505b60018060003373ffffffffffffffffffffffffffffffffffffffff1673ffffffffffffffffffffffffffffffffffffffff1681526020019081526020016000206000828254610451919061117b565b92505081905550604051806020016040528060008152505181511461053657600460405180606001604052803373ffffffffffffffffffffffffffffffffffffffff16815260200183815260200142815250908060018154018082558091505060019003906000526020600020906003020160009091909190915060008201518160000160006101000a81548173ffffffffffffffffffffffffffffffffffffffff021916908373ffffffffffffffffffffffffffffffffffffffff16021790555060208201518160010190816105289190611438565b506040820151816002015550505b6105756040518060400160405280600d81526020017f257320686173207761766564210000000000000000000000000000000000000081525033610a50565b60646005544244610586919061117b565b610590919061117b565b61059a9190611539565b6005819055506105e16040518060400160405280601681526020017f52616e646f6d20232067656e6572617465643a20256400000000000000000000815250600554610aec565b6032600554116106e8576000655af3107a4000905047811115610639576040517f08c379a0000000000000000000000000000000000000000000000000000000008152600401610630906115dc565b60405180910390fd5b60003373ffffffffffffffffffffffffffffffffffffffff168260405161065f9061162d565b60006040518083038185875af1925050503d806000811461069c576040519150601f19603f3d011682016040523d82523d6000602084013e6106a1565b606091505b50509050806106e5576040517f08c379a00000000000000000000000000000000000000000000000000000000081526004016106dc906116b4565b60405180910390fd5b50505b3373ffffffffffffffffffffffffffffffffffffffff167f5f7e16dc676677766a70e9c5628aa6c54ddb8b6e5188e2ae1e1f17f1ffbea716428360405161073092919061170d565b60405180910390a250565b600061077e6040518060400160405280601781526020017f5765206861766520256420746f74616c20776176657321000000000000000000815250600054610aec565b600054905090565b60026020528060005260406000206000915090505481565b60606004805480602002602001604051908101604052809291908181526020016000905b828210156108e657838290600052602060002090600302016040518060600160405290816000820160009054906101000a900473ffffffffffffffffffffffffffffffffffffffff1673ffffffffffffffffffffffffffffffffffffffff1673ffffffffffffffffffffffffffffffffffffffff16815260200160018201805461084b9061125b565b80601f01602080910402602001604051908101604052809291908181526020018280546108779061125b565b80156108c45780601f10610899576101008083540402835291602001916108c4565b820191906000526020600020905b8154815290600101906020018083116108a757829003601f168201915b50505050508152602001600282015481525050815260200190600101906107c2565b50505050905090565b60006109706040518060400160405280601e81526020017f41646472657373202573206861732077617665642025642074696d657321000081525083600160008673ffffffffffffffffffffffffffffffffffffffff1673ffffffffffffffffffffffffffffffffffffffff16815260200190815260200160002054610b88565b600160008373ffffffffffffffffffffffffffffffffffffffff1673ffffffffffffffffffffffffffffffffffffffff168152602001908152602001600020549050919050565b610a4d816040516024016109cb919061173d565b6040516020818303038152906040527f41304fac000000000000000000000000000000000000000000000000000000007bffffffffffffffffffffffffffffffffffffffffffffffffffffffff19166020820180517bffffffffffffffffffffffffffffffffffffffffffffffffffffffff8381831617835250505050610c27565b50565b610ae88282604051602401610a6692919061176e565b6040516020818303038152906040527f319af333000000000000000000000000000000000000000000000000000000007bffffffffffffffffffffffffffffffffffffffffffffffffffffffff19166020820180517bffffffffffffffffffffffffffffffffffffffffffffffffffffffff8381831617835250505050610c27565b5050565b610b848282604051602401610b0292919061179e565b6040516020818303038152906040527fb60e72cc000000000000000000000000000000000000000000000000000000007bffffffffffffffffffffffffffffffffffffffffffffffffffffffff19166020820180517bffffffffffffffffffffffffffffffffffffffffffffffffffffffff8381831617835250505050610c27565b5050565b610c22838383604051602401610ba0939291906117ce565b6040516020818303038152906040527f0d26b925000000000000000000000000000000000000000000000000000000007bffffffffffffffffffffffffffffffffffffffffffffffffffffffff19166020820180517bffffffffffffffffffffffffffffffffffffffffffffffffffffffff8381831617835250505050610c27565b505050565b60006a636f6e736f6c652e6c6f679050600080835160208501845afa505050565b6000604051905090565b600080fd5b600080fd5b600073ffffffffffffffffffffffffffffffffffffffff82169050919050565b6000610c8782610c5c565b9050919050565b610c9781610c7c565b8114610ca257600080fd5b50565b600081359050610cb481610c8e565b92915050565b600060208284031215610cd057610ccf610c52565b5b6000610cde84828501610ca5565b91505092915050565b6000819050919050565b610cfa81610ce7565b82525050565b6000602082019050610d156000830184610cf1565b92915050565b600081519050919050565b600082825260208201905092915050565b6000819050602082019050919050565b610d5081610c7c565b82525050565b6000610d628383610d47565b60208301905092915050565b6000602082019050919050565b6000610d8682610d1b565b610d908185610d26565b9350610d9b83610d37565b8060005b83811015610dcc578151610db38882610d56565b9750610dbe83610d6e565b925050600181019050610d9f565b5085935050505092915050565b60006020820190508181036000830152610df38184610d7b565b905092915050565b600080fd5b600080fd5b6000601f19601f8301169050919050565b7f4e487b7100000000000000000000000000000000000000000000000000000000600052604160045260246000fd5b610e4e82610e05565b810181811067ffffffffffffffff82111715610e6d57610e6c610e16565b5b80604052505050565b6000610e80610c48565b9050610e8c8282610e45565b919050565b600067ffffffffffffffff821115610eac57610eab610e16565b5b610eb582610e05565b9050602081019050919050565b82818337600083830152505050565b6000610ee4610edf84610e91565b610e76565b905082815260208101848484011115610f0057610eff610e00565b5b610f0b848285610ec2565b509392505050565b600082601f830112610f2857610f27610dfb565b5b8135610f38848260208601610ed1565b91505092915050565b600060208284031215610f5757610f56610c52565b5b600082013567ffffffffffffffff811115610f7557610f74610c57565b5b610f8184828501610f13565b91505092915050565b600081519050919050565b600082825260208201905092915050565b6000819050602082019050919050565b600081519050919050565b600082825260208201905092915050565b60005b83811015610ff0578082015181840152602081019050610fd5565b60008484015250505050565b600061100782610fb6565b6110118185610fc1565b9350611021818560208601610fd2565b61102a81610e05565b840191505092915050565b61103e81610ce7565b82525050565b600060608301600083015161105c6000860182610d47565b50602083015184820360208601526110748282610ffc565b91505060408301516110896040860182611035565b508091505092915050565b60006110a08383611044565b905092915050565b6000602082019050919050565b60006110c082610f8a565b6110ca8185610f95565b9350836020820285016110dc85610fa6565b8060005b8581101561111857848403895281516110f98582611094565b9450611104836110a8565b925060208a019950506001810190506110e0565b50829750879550505050505092915050565b6000602082019050818103600083015261114481846110b5565b905092915050565b7f4e487b7100000000000000000000000000000000000000000000000000000000600052601160045260246000fd5b600061118682610ce7565b915061119183610ce7565b92508282019050808211156111a9576111a861114c565b5b92915050565b600082825260208201905092915050565b7f576169742031356d000000000000000000000000000000000000000000000000600082015250565b60006111f66008836111af565b9150611201826111c0565b602082019050919050565b60006020820190508181036000830152611225816111e9565b9050919050565b7f4e487b7100000000000000000000000000000000000000000000000000000000600052602260045260246000fd5b6000600282049050600182168061127357607f821691505b6020821081036112865761128561122c565b5b50919050565b60008190508160005260206000209050919050565b60006020601f8301049050919050565b600082821b905092915050565b6000600883026112ee7fffffffffffffffffffffffffffffffffffffffffffffffffffffffffffffffff826112b1565b6112f886836112b1565b95508019841693508086168417925050509392505050565b6000819050919050565b600061133561133061132b84610ce7565b611310565b610ce7565b9050919050565b6000819050919050565b61134f8361131a565b61136361135b8261133c565b8484546112be565b825550505050565b600090565b61137861136b565b611383818484611346565b505050565b5b818110156113a75761139c600082611370565b600181019050611389565b5050565b601f8211156113ec576113bd8161128c565b6113c6846112a1565b810160208510156113d5578190505b6113e96113e1856112a1565b830182611388565b50505b505050565b600082821c905092915050565b600061140f600019846008026113f1565b1980831691505092915050565b600061142883836113fe565b9150826002028217905092915050565b61144182610fb6565b67ffffffffffffffff81111561145a57611459610e16565b5b611464825461125b565b61146f8282856113ab565b600060209050601f8311600181146114a25760008415611490578287015190505b61149a858261141c565b865550611502565b601f1984166114b08661128c565b60005b828110156114d8578489015182556001820191506020850194506020810190506114b3565b868310156114f557848901516114f1601f8916826113fe565b8355505b6001600288020188555050505b505050505050565b7f4e487b7100000000000000000000000000000000000000000000000000000000600052601260045260246000fd5b600061154482610ce7565b915061154f83610ce7565b92508261155f5761155e61150a565b5b828206905092915050565b7f547279696e6720746f207769746864726177206d6f7265206d6f6e657920746860008201527f616e2074686520636f6e7472616374206861732e000000000000000000000000602082015250565b60006115c66034836111af565b91506115d18261156a565b604082019050919050565b600060208201905081810360008301526115f5816115b9565b9050919050565b600081905092915050565b50565b60006116176000836115fc565b915061162282611607565b600082019050919050565b60006116388261160a565b9150819050919050565b7f4661696c656420746f207769746864726177206d6f6e65792066726f6d20636f60008201527f6e74726163742e00000000000000000000000000000000000000000000000000602082015250565b600061169e6027836111af565b91506116a982611642565b604082019050919050565b600060208201905081810360008301526116cd81611691565b9050919050565b60006116df82610fb6565b6116e981856111af565b93506116f9818560208601610fd2565b61170281610e05565b840191505092915050565b60006040820190506117226000830185610cf1565b818103602083015261173481846116d4565b90509392505050565b6000602082019050818103600083015261175781846116d4565b905092915050565b61176881610c7c565b82525050565b6000604082019050818103600083015261178881856116d4565b9050611797602083018461175f565b9392505050565b600060408201905081810360008301526117b881856116d4565b90506117c76020830184610cf1565b9392505050565b600060608201905081810360008301526117e881866116d4565b90506117f7602083018561175f565b6118046040830184610cf1565b94935050505056fea264697066735822122009fac1c8bb9c5feb7e0acd6f113c9d1afc8ada03d3b5ab65aa933f1153d7d8ba64736f6c63430008120033",
  "linkReferences": {},
  "deployedLinkReferences": {}
}