{
  "_format": "hh-sol-artifact-1",
  "contractName": "WavePortal",
  "sourceName": "contracts/WavePortal.sol",
  "abi": [
    {
      "inputs": [],
      "stateMutability": "nonpayable",
      "type": "constructor"
    },
    {
      "inputs": [],
      "name": "getTotalWaves",
      "outputs": [
        {
          "internalType": "uint256",
          "name": "",
          "type": "uint256"
        }
      ],
      "stateMutability": "view",
      "type": "function"
    },
    {
      "inputs": [],
      "name": "getWaverAddresses",
      "outputs": [
        {
          "internalType": "address[]",
          "name": "",
          "type": "address[]"
        }
      ],
      "stateMutability": "view",
      "type": "function"
    },
    {
      "inputs": [
        {
          "internalType": "address",
          "name": "_address",
          "type": "address"
        }
      ],
      "name": "getWaverCount",
      "outputs": [
        {
          "internalType": "uint256",
          "name": "",
          "type": "uint256"
        }
      ],
      "stateMutability": "view",
      "type": "function"
    },
    {
      "inputs": [],
      "name": "wave",
      "outputs": [],
      "stateMutability": "nonpayable",
      "type": "function"
    },
    {
      "inputs": [
        {
          "internalType": "address",
          "name": "",
          "type": "address"
        }
      ],
      "name": "waveCounts",
      "outputs": [
        {
          "internalType": "uint256",
          "name": "",
          "type": "uint256"
        }
      ],
      "stateMutability": "view",
      "type": "function"
    }
  ],
  "bytecode": "0x608060405234801561001057600080fd5b506100596040518060400160405280601a81526020017f496e2074686520656e642c20492077696c6c207361792068692100000000000081525061005e60201b6104551760201c565b6101e1565b6100fa81604051602401610072919061015f565b6040516020818303038152906040527f41304fac000000000000000000000000000000000000000000000000000000007bffffffffffffffffffffffffffffffffffffffffffffffffffffffff19166020820180517bffffffffffffffffffffffffffffffffffffffffffffffffffffffff83818316178352505050506100fd60201b60201c565b50565b60008151905060006a636f6e736f6c652e6c6f679050602083016000808483855afa5050505050565b600061013182610181565b61013b818561018c565b935061014b81856020860161019d565b610154816101d0565b840191505092915050565b600060208201905081810360008301526101798184610126565b905092915050565b600081519050919050565b600082825260208201905092915050565b60005b838110156101bb5780820151818401526020810190506101a0565b838111156101ca576000848401525b50505050565b6000601f19601f8301169050919050565b610aac806101f06000396000f3fe608060405234801561001057600080fd5b50600436106100575760003560e01c806318c69afc1461005c5780633c29777e1461008c5780636fe15b44146100aa5780639a2cdc08146100b4578063e39af6cd146100d2575b600080fd5b61007660048036038101906100719190610703565b610102565b60405161008391906108ea565b60405180910390f35b61009461011a565b6040516100a19190610808565b60405180910390f35b6100b26101e6565b005b6100bc610342565b6040516100c991906108ea565b60405180910390f35b6100ec60048036038101906100e79190610703565b61038d565b6040516100f991906108ea565b60405180910390f35b60016020528060005260406000206000915090505481565b606061015a6040518060400160405280601a81526020017f52657472656976696e672057617665724164647265737365733a000000000000815250610455565b60028054806020026020016040519081016040528092919081815260200182805480156101dc57602002820191906000526020600020905b8160009054906101000a900473ffffffffffffffffffffffffffffffffffffffff1673ffffffffffffffffffffffffffffffffffffffff1681526020019060010190808311610192575b5050505050905090565b60016000808282546101f8919061095a565b925050819055506000600160003373ffffffffffffffffffffffffffffffffffffffff1673ffffffffffffffffffffffffffffffffffffffff1681526020019081526020016000205414156102ab576002339080600181540180825580915050600190039060005260206000200160009091909190916101000a81548173ffffffffffffffffffffffffffffffffffffffff021916908373ffffffffffffffffffffffffffffffffffffffff1602179055505b60018060003373ffffffffffffffffffffffffffffffffffffffff1673ffffffffffffffffffffffffffffffffffffffff16815260200190815260200160002060008282546102fa919061095a565b925050819055506103406040518060400160405280600d81526020017f2573206861732077617665642100000000000000000000000000000000000000815250336104ee565b565b60006103856040518060400160405280601781526020017f5765206861766520256420746f74616c2077617665732100000000000000000081525060005461058a565b600054905090565b600061040e6040518060400160405280601e81526020017f41646472657373202573206861732077617665642025642074696d657321000081525083600160008673ffffffffffffffffffffffffffffffffffffffff1673ffffffffffffffffffffffffffffffffffffffff16815260200190815260200160002054610626565b600160008373ffffffffffffffffffffffffffffffffffffffff1673ffffffffffffffffffffffffffffffffffffffff168152602001908152602001600020549050919050565b6104eb81604051602401610469919061082a565b6040516020818303038152906040527f41304fac000000000000000000000000000000000000000000000000000000007bffffffffffffffffffffffffffffffffffffffffffffffffffffffff19166020820180517bffffffffffffffffffffffffffffffffffffffffffffffffffffffff83818316178352505050506106c5565b50565b610586828260405160240161050492919061084c565b6040516020818303038152906040527f319af333000000000000000000000000000000000000000000000000000000007bffffffffffffffffffffffffffffffffffffffffffffffffffffffff19166020820180517bffffffffffffffffffffffffffffffffffffffffffffffffffffffff83818316178352505050506106c5565b5050565b61062282826040516024016105a09291906108ba565b6040516020818303038152906040527f9710a9d0000000000000000000000000000000000000000000000000000000007bffffffffffffffffffffffffffffffffffffffffffffffffffffffff19166020820180517bffffffffffffffffffffffffffffffffffffffffffffffffffffffff83818316178352505050506106c5565b5050565b6106c083838360405160240161063e9392919061087c565b6040516020818303038152906040527f07c81217000000000000000000000000000000000000000000000000000000007bffffffffffffffffffffffffffffffffffffffffffffffffffffffff19166020820180517bffffffffffffffffffffffffffffffffffffffffffffffffffffffff83818316178352505050506106c5565b505050565b60008151905060006a636f6e736f6c652e6c6f679050602083016000808483855afa5050505050565b6000813590506106fd81610a5f565b92915050565b60006020828403121561071557600080fd5b6000610723848285016106ee565b91505092915050565b60006107388383610744565b60208301905092915050565b61074d816109b0565b82525050565b61075c816109b0565b82525050565b600061076d82610915565b6107778185610938565b935061078283610905565b8060005b838110156107b357815161079a888261072c565b97506107a58361092b565b925050600181019050610786565b5085935050505092915050565b60006107cb82610920565b6107d58185610949565b93506107e58185602086016109ec565b6107ee81610a4e565b840191505092915050565b610802816109e2565b82525050565b600060208201905081810360008301526108228184610762565b905092915050565b6000602082019050818103600083015261084481846107c0565b905092915050565b6000604082019050818103600083015261086681856107c0565b90506108756020830184610753565b9392505050565b6000606082019050818103600083015261089681866107c0565b90506108a56020830185610753565b6108b260408301846107f9565b949350505050565b600060408201905081810360008301526108d481856107c0565b90506108e360208301846107f9565b9392505050565b60006020820190506108ff60008301846107f9565b92915050565b6000819050602082019050919050565b600081519050919050565b600081519050919050565b6000602082019050919050565b600082825260208201905092915050565b600082825260208201905092915050565b6000610965826109e2565b9150610970836109e2565b9250827fffffffffffffffffffffffffffffffffffffffffffffffffffffffffffffffff038211156109a5576109a4610a1f565b5b828201905092915050565b60006109bb826109c2565b9050919050565b600073ffffffffffffffffffffffffffffffffffffffff82169050919050565b6000819050919050565b60005b83811015610a0a5780820151818401526020810190506109ef565b83811115610a19576000848401525b50505050565b7f4e487b7100000000000000000000000000000000000000000000000000000000600052601160045260246000fd5b6000601f19601f8301169050919050565b610a68816109b0565b8114610a7357600080fd5b5056fea2646970667358221220b555a1c33052868fd8117b4a008ab87545f2a4b46d06c0c887aa634072f846a564736f6c63430008000033",
  "linkReferences": {},
  "deployedLinkReferences": {}
}